:100000000C9425020C9442020C9442020C9442027D
:100010000C940C060C9442020C9442020C94420282
:100020000C9442020C9442020C9458050C94420227
:100030000C9442020C9442020C9442020C94420230
:100040000C9466040C9442020C9442020C944202FA
:100050000C94420249174D179017A617C71791180D
:1000600096189D18BA180E190E190E190E190E1998
:100070000E190E19651616193A19015550444154B6
:100080004500025345545F54494D450003474554CC
:100090005F54494D4500045345545F425249474817
:1000A000544E45535300054449534B5F494E464F08
:1000B00000064745545F4C4947485400074745549C
:1000C0005F534F554E440008434400094C53000A07
:1000D0004652454144000B465752495445000C4D89
:1000E0004B444952000D524D000E4654494D4500B7
:1000F0000F4653495A45001046504C41590011488B
:10010000454C5000124D4D430013544553540000CC
:100110000003030601040602050003051F1C1F1E41
:100120001F1E1F1F1E1F1E1F0C2A00002F00042A47
:1001300000080077245D6D2E6B7B257F6F00646166
:100140005E5A5754504D4946433F3C3935322E2B69
:100150002824211C16100803014D4D432F53442021
:100160006361726420696E6974206572726F720ACD
:10017000007364636172645F7261775F696E697452
:10018000004D4D432F534420696E697469616C6959
:100190007A6174696F6E206661696C656400706174
:1001A00072746974696F6E5F6F70656E00706172F2
:1001B000746974696F6E5F6F70656E006F70656EE5
:1001C000696E6720706172746974696F6E20666110
:1001D000696C6564006661745F6F70656E006F7056
:1001E000656E696E672066696C6573797374656D99
:1001F000206661696C6564006661745F6765745F41
:100200006469725F656E7472795F6F665F70617446
:1002100068004F4B2100736F756E642066696C65D2
:10022000206973206F70656E6564006572726F720D
:10023000206F70656E696E6720003D3F3D3D3D3E1D
:10024000200075736167653A205345545F54494DEA
:10025000452068683A6D6D3A73730A004F4B00632E
:10026000616E27742067657420696E666F004D614A
:100270006E7566616374757265723A203078004FEE
:10028000454D3A200050726F647563743A200052F5
:1002900065766973696F6E3A200053657269616CA7
:1002A0003A20307800446174653A200053697A65D9
:1002B0003A20004D420A00436F70793A200057728D
:1002C0006974652070726F746563743A2000466FBC
:1002D000726D61743A200053697A653A2000467263
:1002E00065653A20004F4B0A006469726563746F5C
:1002F0007279206E6F7420666F756E640A00666195
:10030000745F6F70656E5F6469720063616E2774FD
:10031000206F70656E206469720A004D4D43204560
:1003200052524F5221004D4D43204F4B212121006D
:100330004F50454E202D204F4B004F50454E202D05
:10034000204641494C004C49474854203D2000423A
:1003500052203D2000696E76616C696420636F6D88
:100360006D616E64006932635F776169742054491E
:100370004D454F555421006932635F73746F70208F
:1003800054494D454F5554210045525220676574DC
:1003900054696D6528290048534543203D2000538A
:1003A0004543203D20004D494E203D2000484F55FB
:1003B00052203D20004552522073657454696D658A
:1003C00028290045525220676574446174652829C4
:1003D00000676574206231200067657420623220F6
:1003E0000067657420796561722000676574206D0F
:1003F0006F6E746820006765742064617920004521
:1004000052522073657444617465282900736574C1
:10041000206231200073657420623220007365749D
:1004200020796561722000736574206D6F6E746849
:100430002000736574206461792000494E49542D71
:100440003100494E49542D32000011241FBECFE522
:10045000D8E0DEBFCDBF10E0A0E6B0E0E2E0F4E31C
:1004600002C005900D92AA37B107D9F715E0AAE7A7
:10047000B0E001C01D92A53DB107E1F70E940F1643
:100480000C94FF190C9400008BB3807E8BBB88B357
:10049000807F88BB82B38F7982BB089590E070E043
:1004A000FB01ED5CFE4FE491DC01A459BE4FEC93DF
:1004B000685D7E4FFB01649184579C4FFC01608313
:1004C0000895FB0111821082DC01CD016D91262F70
:1004D00020532A30B8F420813181C901880F991F37
:1004E000A90173E0440F551F7A95E1F7840F951F1A
:1004F000C097262F332727FD3095820F931F9183B6
:100500008083E3CF089561E070E002C0660F771F3B
:100510008A95E2F720E030E08FEFA1E0B0E0F9014A
:10052000E459FE4F408150E04623572341155105C1
:1005300049F0AD01022E02C0440F551F0A94E2F7A4
:10054000409584232F5F3F4F2430310541F7909130
:10055000970391118F7C0895FF920F931F93CF9370
:10056000DF930F92CDB7DEB70091CF0310918B03CD
:100570000A3030F0802F6AE00E948119682F01C094
:100580006AE080E00E944E02EAE0FE2E802F6F2D8E
:100590000E94811981E0692F0E944E02812F6F2DE8
:1005A0000E948119682F82E099830E944E0283E0A5
:1005B0009981692F0E944E0200E010E0073020F47C
:1005C000802F0E94830205C0F801EB57FC4F808109
:1005D0008095880F880FF801E958FE4F80830F5FE0
:1005E0001F4F0B30110551F70F90DF91CF911F91E5
:1005F0000F91FF900895882311F092980895929A90
:10060000089580917B0090917C00009731F00E94CA
:10061000FD0A10927C0010927B0010927A0080E01C
:100620000E94FB020895EF92FF920F931F93CF93C6
:10063000DF93CDB7DEB7AB970FB6F894DEBF0FBE32
:10064000CDBFE0907F00F090800000917D00109180
:100650007E0012C0CE01019660E670E00E94E119B2
:10066000009751F4C8010E94EE0DC701BE016F5FF3
:100670007F4F0E94C80A0AC0C801BE016F5F7F4F4A
:100680000E94940C882331F780E090E090937C00E6
:1006900080937B00009751F48BE292E00E94331527
:1006A0005D9BFECF8AE08CB980E01AC086E192E0C3
:1006B0000E9433151092D1051092D0051092C303F9
:1006C000109270011092CA031092CB031092CC03C7
:1006D0001092CD0381E00E94FB0281E080937A00BA
:1006E000AB960FB6F894DEBF0FBECDBFDF91CF91B2
:1006F0001F910F91FF90EF900895809183008823C0
:1007000021F180917D0090917E00009731F00E9450
:100710008E0C10927E0010927D0080917F0090914F
:100720008000009731F00E94520A109280001092CF
:100730007F008091810090918200009731F00E94AB
:10074000C40F109282001092810008950F93CF93EE
:1007500081E791E00E9415070E94481291E08823EA
:1007600009F490E090938300992319F481E891E0D3
:1007700030C08EE991E00E94150783EB92E16EE2B2
:1007800073E140E050E020E030E000E00E94300FF4
:100790009093820080938100009799F48DEA91E014
:1007A0000E94150783EB92E16EE273E140E050E0B6
:1007B00020E030E00FEF0E94300F90938200809392
:1007C00081008091810090918200009731F48CEB40
:1007D00091E00E94150780E03BC085ED91E00E940A
:1007E000150780918100909182000E94A608909345
:1007F000800080937F00009719F48EED91E0E9CF9F
:1008000088EF91E00E941507CFE2C0934C0110924F
:100810004D0180917F00909180006CE471E048E987
:1008200053E00E94630D882371F4C0934C01109231
:100830004D0180917F00909180006CE471E048E967
:1008400053E00E94630D82E192E00E94150781E06F
:10085000CF910F910895FC0160830895FC011482EB
:10086000618380818695828313820895FC012181B2
:1008700082819381821B91099383828397FF07C0B2
:100880002081820F911D9383828381E001C080E0EB
:1008900094819F5F94832081921720F01482269583
:1008A000228313820895853608F084E680936A00D7
:1008B00080916A001092C8038093C5038091C4039D
:1008C00086958093C6031092C70308951F920F92D6
:1008D0000FB60F9211242F933F934F938F939F93B3
:1008E00027B1277034B145B1942F80E0830F911D5B
:1008F000273041F49093D4058093D30581E0809311
:10090000960306C0263021F49093890380938803D0
:100910009F918F914F913F912F910F900FBE0F900C
:100920001F9018958FEC93E06BE873E04EEC53E06A
:1009300027E831E00E94CC0F882309F43BC0809166
:10094000D20590E0880F991F880F991F209171019F
:1009500030917201820F931F909372018093710105
:10096000382F3150209195032150E22FF0E0E05FC5
:10097000FE4FE49183709070009719F4269509F06A
:10098000EF5F832F8695869590E0830F911D8E0FE4
:10099000911D2091C903820F911D67E070E00E94B4
:1009A000A11980939203009719F487E08093920332
:1009B0000E94AC0208950F931F93CF93DF93EC0135
:1009C000009719F4EEE3F1E009C008E210E0B80185
:1009D0000E948D196A3120F0E8E5F1E0849123C08E
:1009E00070E0FB01E25CFE4F4491FB01E15CFE4FD5
:1009F000E491F0E0E41BF10988ED9FEF689F90011E
:100A0000699F300D789F300D11242C0F3D1FE29F00
:100A1000C001E39F900DF29F900D1124B8010E9438
:100A2000A119842F860FDF91CF911F910F91089507
:100A300080916900882341F18091D3059091D4057C
:100A40000E94DB0440916B0050E09A01220F331F9B
:100A5000240F351F280F311D36952795369527957C
:100A600020936B0080916A00821771F0809187015A
:100A7000823050F48091CE0365E00E948119992361
:100A800019F4822F0E9453040895809183008823D3
:100A900021F40E94A6038093830080918300882321
:100AA00021F489E591E00E94331580918300089537
:100AB0001F920F920FB60F9211242F933F934F93D3
:100AC0005F936F937F938F939F93AF93BF93CF93D6
:100AD000DF93EF93FF9380914B018CBF809187014F
:100AE000982F9F5F90938701943608F45DC08356DA
:100AF000809387018091CE038F5F8093CE038C33E8
:100B000009F04BC01092CE0380918B038F5F8093CE
:100B10008B038C3309F03FC010928B038091CF037D
:100B20008F5F8093CF038831B1F51092CF0310927D
:100B30007301109274011092750110927601409128
:100B4000C9034F5F4093C903809171019091720175
:100B50009C0123703070E09195032115310511F44B
:100B6000E23029F0F0E0E55EFE4FE49101C0EDE1F6
:100B7000E41788F431E03093C903209195032F5F87
:100B8000209395032D3038F0309395030196909380
:100B90007201809371010E94AC028091CE038E316C
:100BA00019F481E080938A0381E090918701923368
:100BB00008F080E090919703891789F0809397035C
:100BC000C0E0D0E08C2F0E948302880F880FFE01C6
:100BD000E958FE4F80832196C730D10599F780915F
:100BE000870180FF02C086E001C087E087B98FECF3
:100BF00086B9FF91EF91DF91CF91BF91AF919F9116
:100C00008F917F916F915F914F913F912F910F90B5
:100C10000FBE0F901F9018951F920F920FB60F9254
:100C200011242F933F934F935F936F937F938F93F1
:100C30009F93AF93BF93EF93FF938091940383BDF2
:100C400080919303882399F4809187008F5F80932C
:100C50008700843610F01092870084EC93E00E94A5
:100C6000360480936C00882311F40E944402809122
:100C700093038F5F809393038B3010F01092930354
:100C800080916C008823B9F10E944402E0919303A3
:100C9000F0E0E958FE4F808195B3937095BB95B312
:100CA000892B85BB20919303253058F43BB381E019
:100CB00090E002C0880F991F2A95E2F7382B3BBBC2
:100CC0001AC0273058F432B381E090E002C0880F98
:100CD000991F2A95E2F7382B32BB0DC048B330E09C
:100CE0002750304081E090E002C0880F991F2A957C
:100CF000E2F7482B48BB809170018823F1F43091D2
:100D0000C30330FF3BC08091D0059091D105FC0119
:100D1000E857FE4F208101969093D1058093D0052E
:100D200042E08030940758F11092D1051092D0051E
:100D300081E0809370013E7F1EC08130F9F43091D4
:100D4000C30331FF1BC08091D0059091D105FC01F8
:100D5000E053FC4F208101969093D1058093D005FC
:100D600042E08030940758F01092D1051092D005DF
:100D7000109270013D7F3093C30301C020E8822FA1
:100D800090E099BD88BDFF91EF91BF91AF919F9188
:100D90008F917F916F915F914F913F912F910F9024
:100DA0000FBE0F901F901895FC01318120E08081CB
:100DB00090E0822B932B08950F931F93FC010381E6
:100DC00010E020E030E0302F222711270027828119
:100DD00090E0A0E0B0E0DC0199278827082B192BD0
:100DE0002A2B3B2B808190E0A0E0B0E0082B192B50
:100DF0002A2B3B2B818190E0A0E0B0E0BA2FA92FF5
:100E0000982F8827082B192B2A2B3B2BB801C901B7
:100E10001F910F910895FC01718360830895FC0177
:100E2000738362835183408308950E9433155D9BD1
:100E3000FECF8AE08CB908950E942A155D9BFECFF3
:100E40008AE08CB908950F931F93CF93DF9300D05E
:100E50000F92CDB7DEB78B0129834A835B830E9453
:100E6000331529814A815B81213021F4842F0E942E
:100E70003D150CC0223021F4CA010E945B1506C04A
:100E8000243021F4BA01C8010E9465155D9BFECF94
:100E90008AE08CB90F900F900F90DF91CF911F9146
:100EA0000F910895CF92DF92EF92FF926A017B013A
:100EB0000E943315C701B6010E94A9155D9BFECFA4
:100EC0008AE08CB9FF90EF90DF90CF900895CF9299
:100ED000DF92EF92FF920F931F93CF93DF937C01EA
:100EE0008901F901C280D380C0E0D0E00BC00E942C
:100EF000D406009731F4F8018081918101969183A5
:100F000080832296C7018C0F9D1FCC15DD0578F3D9
:100F100081E0DF91CF911F910F91FF90EF90DF90D3
:100F2000CF900895CF92DF92EF92FF920F931F938D
:100F3000CF93DF93CDB7DEB72D970FB6F894DEBF12
:100F40000FBECDBF7C016901D9010D911C91119794
:100F500012968D919C911397809613969C938E93E5
:100F60001297F7018081853E11F0882329F4D6017C
:100F700014961C921497DAC0F70193859F3009F0FC
:100F80004AC0D90114968C911497882319F095853D
:100F9000891789F08BE2F80111928A95E9F7D70158
:100FA0001D968C91F6018483D80197964D935D939D
:100FB0006D937C939A97F701808190E08F73907086
:100FC00001972DE030E0829FA001839F500D929FFA
:100FD000500D1124FE013196ADE6B0E08DE00D908C
:100FE00001928150E1F7DE01119620E010C03D91A1
:100FF000C801840F951FF701E30FF11D3081FC013B
:1010000030832F5F4F5F5F4F2D3009F48FC04F311A
:10101000510568F38BC0D8019C91992399F0F9018F
:101020002481F701319691E0382F37953327379592
:101030008695832B3191830F9F5F9B30A9F72817EB
:1010400009F456C08BE2D8011D928A95E9F7F801A0
:1010500047A350A761A772A7A701D80180E0FA01B2
:101060009081903299F09C93F701248523FF08C06A
:10107000FA012081213420F02B3510F4905E9C93EE
:101080008F5F4F5F5F4F1196883049F7D8019C9171
:10109000953011F495EE9C93F7019085903221F1F3
:1010A000F801E80FF11D9EE29083F7013896382F82
:1010B0003C5F8F5F90819032B9F0A801480F511DBD
:1010C000DA019C93D7011C962C911C9724FF08C031
:1010D0002081213428F02B3518F4905EDA019C939E
:1010E0008F5F3196831731F7F801E80FF11D1082F9
:1010F000F7018385D80190968C93C7014A960E9488
:10110000D406F80192A381A3C7014C960E94DC0685
:10111000DC01CB01F80183A394A3A5A3B6A381E0CE
:10112000D60115968C93159780E001C081E02D962D
:101130000FB6F894DEBF0FBECDBFDF91CF911F91E8
:101140000F91FF90EF90DF90CF9008952F923F92F4
:101150004F925F926F927F928F929F92AF92BF92C7
:10116000CF92DF92EF92FF920F931F93CF93DF9373
:10117000CDB7DEB7AE970FB6F894DEBF0FBECDBFCA
:101180001C01009709F087C16BC1E8E8F0E08CE131
:10119000DF011D928A95E9F730928900209288003C
:1011A000D10119962D913D914D915C911C9789E04B
:1011B000220F331F441F551F8A95D1F72C8F3D8F67
:1011C0004E8F5F8FCA01B901655F7F4F8F4F9F4F71
:1011D000ED91FC91AE014F5F5F4F29E130E0099541
:1011E000882309F439C1CE0101960E94D4069B8F51
:1011F0008A8FCE0104960E94D4062C01BB81BCA329
:101200008E80CE0107960E94D4069EA38DA3CE01A8
:1012100009960E94D4068C01CE010C960E94D40639
:101220006C01CE0146960E94DC0668A379A38AA3CE
:101230009BA3611571058105910559F401151105EF
:1012400009F40AC1980140E050E028A339A34AA359
:101250005BA3C114D10409F4FFC0C201A0E0B0E057
:101260008FA398A7A9A7BAA7B60180E090E0282D80
:1012700030E040E050E00E9462196BA77CA78DA788
:101280009EA7C8A0D9A0EAA0FBA02FA138A549A578
:101290005AA5C21AD30AE40AF50AC61AD70AE80AF6
:1012A000F90A8A8D9B8D01972DA13EA105E0220FA1
:1012B000331F0A95E1F7820F931F6A8D7B8D0E9481
:1012C0008D19CB01A0E0B0E0C81AD90AEA0AFB0ADE
:1012D0008CA1282F30E040E050E0C701B6010E9409
:1012E000B41949015A01253F9FE0390790E04907A9
:1012F00090E0590708F4B0C0253FAFEF3A07A0E0EF
:101300004A07A0E05A0720F486E0F101808704C074
:101310008BE0D10118968C9388E1EAE8F0E0DF01D8
:101320001D928A95E9F7EA8DFB8D2F0166247724BB
:1013300068A179A18AA19BA1A30192010E946219CF
:10134000DC01CB0180938A0090938B00A0938C00EA
:10135000B0938D00C301B2012FA138A549A55AA5AC
:101360000E9462196B017C012C8D3D8D4E8D5F8D2D
:10137000C20ED31EE41EF51EC0928E00D0928F00C6
:10138000E0929000F0929100A50194012E5F3F4FF2
:101390004F4F5F4FD10118968C911897863029F4E2
:1013A00062E070E080E090E004C064E070E080E023
:1013B00090E00E946219DC01CB018093920090932F
:1013C0009300A0939400B0939500EA8DFB8DF09369
:1013D0009700E0939600FCA12F2F30E04A8D5B8DA3
:1013E000429FC001439F900D529F900D11249093F6
:1013F0009900809398006BA57CA58DA59EA5A3015F
:1014000092010E946219DC01CB018C0D9D1DAE1D65
:10141000BF1D80939E0090939F00A093A000B09367
:10142000A100EDA1FEA1AF0160E070E015E0440F66
:10143000551F661F771F1A95D1F7480F591F6A1F4E
:101440007B1F40939A0050939B0060939C00709385
:101450009D0088E890E006C01092890010928800F4
:1014600080E090E0AE960FB6F894DEBF0FBECDBF21
:10147000DF91CF911F910F91FF90EF90DF90CF9070
:10148000BF90AF909F908F907F906F905F904F90A4
:101490003F902F9008958091880090918900009747
:1014A000F9F673CE009719F0FC01118210820895AD
:1014B0000F931F93CF93DF9300D0CDB7DEB7FC011E
:1014C0000097A1F16230710588F120813181CB0153
:1014D000A0E0B0E0880F991FAA1FBB1F468157816B
:1014E00060857185840F951FA61FB71FF9010081C4
:1014F0001181BC01CD01AE014F5F5F4F22E030E0B2
:10150000F8010995882391F089819A81009781F0EB
:10151000FFEF873F9F0751F09C01205F3F4F27302F
:10152000310520F02FEF883F920710F080E090E027
:101530000F900F90DF91CF911F910F9108950F930E
:101540001F93CF93DF93EC010097C1F062307105D8
:10155000A8F06250704080E090E02889398940E02E
:1015600050E00E9462198B019C018A899B89AC8999
:10157000BD89080F191F2A1F3B1F03C000E010E0A0
:101580009801B801C901DF91CF911F910F91089582
:10159000CF93DF93FB01009719F1309709F120A158
:1015A00024FF23C01DC0A6EAB0E0EF012BE20990A2
:1015B0000D922150E1F79093A5008093A400109222
:1015C000D1001092D2001092D3001092D40081A1C9
:1015D00092A19093D6008093D50084EA90E002C057
:1015E00080E090E0DF91CF9108952091A4003091A8
:1015F000A50021153105A1F7D6CF009719F0FC0100
:101600001182108208952F923F924F925F926F92B3
:101610007F928F929F92AF92BF92CF92DF92EF9282
:10162000FF920F931F93CF93DF9300D000D000D091
:10163000CDB7DEB78C017C836B831A01DC019D96EC
:101640008D909D90AD90BC90D09795964D915D9169
:101650006D917C919897C101A0E0B0E0880D991D33
:10166000AA1DBB1D481759076A077B0718F41A0102
:1016700028183908D801ED91FC91119720893189FA
:101680003A832983D1968D919C91D2979E838D83A5
:10169000009799F593960D90BC91A02DBE83AD83D4
:1016A000109749F481149104A104B10409F094C085
:1016B00080E090E093C081149104A104B10489F406
:1016C0001CC0C418D508E608F708F801808191818C
:1016D0006D817E810E94580A9E838D83009741F41C
:1016E0007BC07501640129813A8129016624772430
:1016F000C414D504E604F70420F749805A800894FE
:1017000041085108482059204101D801ED90FC9032
:10171000C7016D817E810E949F0AAB01BC01C98017
:10172000DA80C418D5088C149D0408F46401D7012C
:10173000ED91FC91C201A0E0B0E0840F951FA61FBF
:10174000B71F0190F081E02DBC01CD014B815C8180
:1017500096010995882379F1EB81FC81EC0DFD1D43
:10176000FC83EB838C189D08A60160E070E0F80113
:1017700085A596A5A7A5B0A9840F951FA61FB71F7D
:1017800085A796A7A7A7B0ABC601840D951D298193
:101790003A8182179307A8F0808191816D817E81C3
:1017A0000E94580A9E838D83009749F4D801D296EF
:1017B0001C921E92D197C101881999090FC0442427
:1017C00055242D813E81F80132AB21AB8114910467
:1017D00009F09BCFC10102C08FEF9FEF26960FB695
:1017E000F894DEBF0FBECDBFDF91CF911F910F9157
:1017F000FF90EF90DF90CF90BF90AF909F908F9031
:101800007F906F905F904F903F902F9008950F932F
:101810001F93CF93DF93FC01EB010097E1F1209739
:10182000D1F105A516A527A530A9413051F04130C9
:1018300018F0423081F50EC088819981AA81BB8160
:1018400015C088819981AA81BB81800F911FA21F39
:10185000B31F0CC088819981AA81BB8145A156A183
:1018600067A170A5840F951FA61FB71F45A156A19C
:1018700067A170A5481759076A077B0760F085A71D
:1018800096A7A7A7B0AB12AA11AA88839983AA83A7
:10189000BB8381E001C080E0DF91CF911F910F9168
:1018A0000895CF93DF939C01EB01009789F1209776
:1018B00079F188A184FF2CC08091D7009091D80045
:1018C000009749F08091080190910901009701F576
:1018D000A8E0B1E002C0A7EDB0E0BD016E5F7F4FB0
:1018E000CE014BE2FC010190CF01FB010192BF014F
:1018F0004150C1F711963C932E9389A19AA19E96CF
:101900009C938E939D97D0961C921E929F9702C097
:10191000A0E0B0E0CD01DF91CF910895009719F0DC
:10192000FC011182108208952F923F924F925F9294
:101930006F927F928F929F92AF92BF92CF92DF92DF
:10194000EF92FF920F931F93CF93DF93CDB7DEB744
:10195000A8970FB6F894DEBF0FBECDBF5C0100970D
:1019600009F497C06115710509F493C0DC016D900D
:101970007C901197F301208831889D964D905C9062
:101980009E979F968D909C90D0978214930408F018
:1019900066C0FE01319686E0DF011D928A95E9F767
:1019A0008BE2FB0111928A95E9F77A8369834114EE
:1019B000510409F063C0D30152962D903C90539787
:1019C00056968D919C915797281A390A57C08101D4
:1019D000081919096401EE24FF244114510431F45B
:1019E000F30186899789A08DB18D06C0C301B2012C
:1019F0000E949F0ADC01CB018C0D9D1DAE1DBF1DF9
:101A00001C821B82F30120813181F9010280F38164
:101A1000E02DBC01CD01AE01495F5F4F20E230E017
:101A20000F2EF2E9EF2EF7E0FF2EF02D6E01089455
:101A3000C11CD11C0995882361F18B819C81880E82
:101A4000991E82149304D0F0C301B2010E94580A77
:101A50002C01009789F48E818823A1F4D5019396F7
:101A60008D919C9194979E969C938E939D97D096E2
:101A70001C921E929F970DC0882499248E818823E2
:101A800009F4A5CFF50156A645A690AA87A68E8192
:101A900001C080E0A8960FB6F894DEBF0FBECDBFA0
:101AA000DF91CF911F910F91FF90EF90DF90CF903A
:101AB000BF90AF909F908F907F906F905F904F906E
:101AC0003F902F9008958F929F92AF92BF92CF92A6
:101AD000DF92EF92FF920F931F93CF93DF934C010E
:101AE000EB018A01009709F465C0209709F462C0F0
:101AF0008881882309F45EC04115510509F45AC054
:101B00008F3209F421968BE2F80111928A95E9F758
:101B100080E1F80180A301C0E5018881882309F4F0
:101B20004BC0C401B8010E94510C6C01009709F42C
:101B300041C0CE016FE270E00E94D619009739F0E3
:101B4000E82FEC1B5C010894A11CB11C2AC0AC2F2F
:101B5000BD2FFD0101900020E9F73197EC1B5E01DC
:101B6000AE0EB11C1EC0F80101900020E9F73197BC
:101B7000E01BF10BEE15FF05B1F4CE01B801A70192
:101B80000E94F119009779F4F60111821082CE0DAE
:101B9000DF1D8881882381F0F80180A184FDBCCFFE
:101BA00009C0EE2EFF24C601B8010E94940C8823C0
:101BB000D1F610C080E001C081E0DF91CF911F918C
:101BC0000F91FF90EF90DF90CF90BF90AF909F90DC
:101BD0008F900895F601118210829FCFFC0100972B
:101BE00041F083A194A196A785A710AA17A681E02A
:101BF000089580E008950F931F93FC010097A9F0CA
:101C00006285738584859585969587957795679583
:101C100062507040804090402089318940E050E01F
:101C20000E9462198B019C0103C000E010E0980142
:101C3000B801C9011F910F9108952F923F924F92C1
:101C40005F926F927F928F929F92AF92BF92CF924C
:101C5000DF92EF92FF920F931F93CF93DF93CDB755
:101C6000DEB7A6970FB6F894DEBF0FBECDBF1C013E
:101C7000009709F460C01A82198280E290E09C8388
:101C80008B83D10116964D905D906D907C90199745
:101C90001A968D909D90AD90BC901D9739C0BEEF67
:101CA0008B16BFEF9B06B0E0AB06B0E0BB0618F4A6
:101CB0009EA28DA204C0EEEFFFEFFEA3EDA3D10123
:101CC000ED91FC910280F381E02DC301B201AE01E0
:101CD0004B5F5F4F20E230E00DA11EA10F2EF7E613
:101CE000EF2EF7E0FF2EF02D6E010894C11CD11CE1
:101CF0000995882301F10DA11EA1C801A0E0B0E063
:101D0000480E591E6A1E7B1E881A990AAA0ABB0A27
:101D100081149104A104B10411F6F1016089718963
:101D200080E090E029813A8140E050E00E94621911
:101D30008B019C0103C000E010E09801B801C901CB
:101D4000A6960FB6F894DEBF0FBECDBFDF91CF9140
:101D50001F910F91FF90EF90DF90CF90BF90AF90C9
:101D60009F908F907F906F905F904F903F902F90BB
:101D7000089580E090E007C0019729F485E693E09C
:101D80000E941507089506B607FEF6CF089511B80C
:101D90008FE280B9089584EA86BF0E94B90E91B19E
:101DA000987F81E0983009F080E00895CF9380FF1C
:101DB00002C0C0E401C0C8E183B984E886BF0E94C4
:101DC000B90E21B130E0287F30704C2F50E081E017
:101DD0002417350709F080E0CF91089583B984E88E
:101DE00086BF0E94B90E91B1987F81E0983209F0C8
:101DF00080E00895CF93DF93EC0184EC86BF0E94CE
:101E0000B90E91B183B18883987F81E0903509F054
:101E100080E0DF91CF910895CF93DF93EC0184E8C8
:101E200086BF0E94B90E91B183B18883987F81E00B
:101E3000983509F080E0DF91CF91089584E986BF5D
:101E400080E090E008C0019731F487E793E00E94BA
:101E5000150780E0089506B604FCF5CF81E00895EB
:101E60006F927F928F929F92AF92BF92CF92DF92AA
:101E7000FF920F931F93CF93DF93CDB7DEB7609799
:101E80000FB6F894DEBF0FBECDBF6C015B014A01F7
:101E90003901F02E009709F460C06115710509F44D
:101EA0005CC083E080170CF458C007FD1BC0602F96
:101EB000772767FD709584E0660F771F8A95E1F7B5
:101EC00062547E4F882777FD8095982FAE014F5F33
:101ED0005F4F20E130E0F60109958823F1F18D8113
:101EE0008823D9F1809141018823B9F509E311E0F4
:101EF00081E1F80111928A95E9F7D0923A01C092F6
:101F00003901B0923C01A0923B0190923E01809237
:101F10003D017092400160923F01F7FC1AC08D8133
:101F200080934101CE0109960E94DC06DC01CB01C1
:101F3000F80181879287A387B487CE010D960E940E
:101F4000DC06DC01CB01F80185879687A787B08B7B
:101F500006C08FEF8093410102C000E010E0C8018D
:101F600060960FB6F894DEBF0FBECDBFDF91CF9164
:101F70001F910F91FF90DF90CF90BF90AF909F90F7
:101F80008F907F906F900895009721F0FC0110864C
:101F900081E0089580E00895AF92BF92CF92DF92E2
:101FA000EF92FF920F931F93CF93DF9300D000D057
:101FB000CDB7DEB75C016B017A0189010E94C70EC3
:101FC0000E94CB0E882399F180EA0E94D60E8823C6
:101FD00071F181E00E94EE0E882349F10E941E0FEC
:101FE000882329F10E94CB0E882309F181EA0E94FF
:101FF000D60E8823E1F0CE0104960E94FA0E8823C3
:10200000B1F0CE0103960E94FA0E882381F0CE0132
:1020100002960E94FA0E882351F0CE0101960E948A
:102020000C0F882321F00E941E0F882341F489E8B9
:1020300093E00E9415070E941E0F80E059C02C817A
:10204000922F92959F70990F892F880F880F890F73
:102050002F70820FF80180832B81922F92959F70B1
:10206000990F892F880F880F890F2F70820FF70122
:1020700080832A81922F92959F70990F892F880FC4
:10208000880F890F2F70820FF60180832981922F8C
:1020900092959F70990F892F880F880F890F2F7045
:1020A000820FF5018083F801408150E060E070E02C
:1020B00087E993E00E945207F701408150E060E019
:1020C00070E08FE993E00E945207F601408150E0F2
:1020D00060E070E086EA93E00E945207F5014081DB
:1020E00050E060E070E08DEA93E00E94520781E0EA
:1020F0000F900F900F900F90DF91CF911F910F9144
:10210000FF90EF90DF90CF90BF90AF900895FF9237
:102110000F931F93CF93DF93C82FD62F142FF22E38
:102120000E94C70E0E94CB0E8823D9F180EA0E943C
:10213000D60E8823B1F181E00E94EE0E882389F14A
:102140000AE08F2D602F0E9481198295807F890F70
:102150000E94EE0E882329F1812F602F0E948119A1
:102160008295807F890F0E94EE0E8823D1F08D2FFB
:10217000602F0E9481198295807F890F0E94EE0E48
:10218000882379F08C2F602F0E9481198295807F9F
:10219000890F0E94EE0E882321F00E941E0F8823D3
:1021A00041F485EB93E00E9415070E941E0F80E02A
:1021B00001C081E0DF91CF911F910F91FF900895B1
:1021C000CF92DF92EF92FF920F931F93CF93DF9303
:1021D00000D0CDB7DEB78C017B016A010E94C70E2B
:1021E0000E94CB0E882339F180EA0E94D60E882304
:1021F00011F185E00E94EE0E8823E9F00E941E0F87
:102200008823C9F00E94CB0E8823A9F081EA0E949E
:10221000D60E882381F0CE0102960E94FA0E882302
:1022200051F0CE0101960E940C0F882321F00E94EC
:102230001E0F882341F483EC93E00E9415070E944F
:102240001E0F80E051C04A81842F82958695869525
:102250008370F80180832981922F969596959695A3
:102260009270892F880F880F890F2F70820FF701C6
:102270008083942F9695969596959670892F880FC2
:10228000880F890F942F9F70890FF601808350E08B
:1022900060E070E081ED93E021E00E942307498136
:1022A00050E060E070E089ED93E021E00E942307B8
:1022B000F801408150E060E070E081EE93E00E9420
:1022C0005207F701408150E060E070E08BEE93E050
:1022D0000E945207F601408150E060E070E086EF16
:1022E00093E00E94520781E00F900F90DF91CF9111
:1022F0001F910F91FF90EF90DF90CF900895FF9284
:102300000F931F93CF93DF93D82F062FC42F0E94D4
:10231000C70E0E94CB0E882379F180EA0E94D60E68
:10232000882351F185E00E94EE0E882329F11AE0FE
:102330008C2F612F0E9481198295807F890FFD2E3D
:10234000F294FF0CFF0C90ECF922F82A8F2D0E94DA
:10235000EE0E882389F0802F612F0E948119182F9B
:102360001295107F190F812F0E94EE0E882321F005
:102370000E941E0F882341F48FEF93E00E941507FF
:102380000E941E0F80E02CC04F2D50E060E070E0F6
:102390008DE094E021E00E942307412F50E060E0AF
:1023A00070E085E194E021E00E9423074D2F50E08A
:1023B00060E070E08DE194E00E94520710E020E0C0
:1023C00030E087E294E0B901A8010E9452074C2F47
:1023D00050E060E070E082E394E00E94520781E008
:1023E000DF91CF911F910F91FF9008958FB9779B47
:1023F000FECF7798089581E09C9980E0089581E070
:102400009D9980E008958FEF8FB9779BFECF7798E5
:102410008FB108951F93CF93DF9300D000D0CDB735
:10242000DEB7182F4C835B836A8379830E94031283
:10243000812F80640E94F6117981872F0E94F61106
:102440006A81862F0E94F6115B81852F0E94F6110A
:102450004C81842F0E94F611112319F0183041F499
:1024600005C085E90E94F6111AE004C087E8FACF9A
:102470008FEFF8CF0E9403128F3F11F41150D1F764
:102480000F900F900F900F90DF91CF911F910895B3
:10249000CF93DF93BD9ABF9ABC9ABE98C49A8BE340
:1024A00094E00E94150783E58DB9709810924A0157
:1024B00082E494E00E941507CAE00E940312C15012
:1024C000E1F7C498C0E0D2E080E040E050E0BA011B
:1024D0000E940A12813019F02197B1F72EC087E3CC
:1024E00040E050E0BA010E940A1289E240E050E068
:1024F000BA010E940A1282FD05C080914A018160E2
:1025000080934A01C0E0D0E880914A0190E0837056
:102510009070009741F087E340E050E0BA010E94DC
:102520000A1289E201C081E040E050E0BA010E9455
:102530000A1280FF04C0219739F7C49A0AC080E1CB
:1025400040E052E060E070E00E940A12C49A8823E2
:1025500011F080E005C08DB18C7F8DB9709A81E05B
:10256000DF91CF9108952F923F924F925F926F9299
:102570007F928F929F92AF92BF92CF92DF92EF9213
:10258000FF920F931F93CF93DF934B015C012A01BE
:102590006901212CE2E03E2E49C08FEF682E81E0D8
:1025A000782E68207920C498C301A0E0B0E0B5017E
:1025B000A401481B590B6A0B7B0B81E10E940A1294
:1025C000882319F0C49A80E036C00E9403128E3F1F
:1025D000E1F77101E618F708CE14DF0408F476017C
:1025E000E701C60DD71D00E010E00E94031206159A
:1025F000170530F00C171D0718F4F20181932F0115
:102600000F5F1F4FF2E000301F0779F70E9403129F
:102610000E940312C49A0E940312CE18DF08C70159
:10262000A0E0B0E0880E991EAA1EBB1EC114D10402
:1026300009F0B3CF81E0DF91CF911F910F91FF900F
:10264000EF90DF90CF90BF90AF909F908F907F9052
:102650006F905F904F903F902F9008952F923F92F0
:102660004F925F926F927F928F929F92AF92BF92A2
:10267000CF92DF92EF92FF920F931F93CF93DF934E
:10268000CDB7DEB72A970FB6F894DEBF0FBECDBF29
:102690002B013C011A0159014801FE82ED82D886C6
:1026A000CF824115510509F497C02115310509F470
:1026B00093C00217130708F48FC0E114F10409F462
:1026C0008BC0C498FFEFEF2EF1E0FF2EE420F52041
:1026D000C701A0E0B0E0A3019201281B390B4A0B0F
:1026E0005B0B29833A834B835C8381E1BA01A901A7
:1026F0000E940A12882311F0C49A6EC00E9403122D
:102700008E3FE1F700E010E004C00E9403120F5F6B
:102710001F4F0E151F05C9F700E012E00E191F0923
:102720000A151B0590F18A149B0418F42EC021E0B1
:1027300033C0610120E030E02A8739870E9403120C
:10274000D6018D936D012A8539852F5F3F4F2A155C
:102750003B0591F7A70160E070E0440D551D661D33
:10276000771DC1012F813885ED81FE810995882370
:10277000F1F20A191B098A189B080115110529F0A5
:10278000EA0CFB1C8114910459F620E005C00E945C
:102790000312015010402A852A8701151105B9F747
:1027A0000E9403120E9403122A858A149B0478F067
:1027B00049805A806B807C8080E092E0A0E0B0E0AD
:1027C000480E591E6A1E7B1E222309F47BCFC49A31
:1027D0000E94031281E001C080E02A960FB6F894AF
:1027E000DEBF0FBECDBFDF91CF911F910F91FF9044
:1027F000EF90DF90CF90BF90AF909F908F907F90A1
:102800006F905F904F903F902F900895AF92BF923E
:10281000CF92DF92EF92FF920F931F93CF93DF93AC
:1028200000D0CDB7DEB78C0189E1F80111928A950D
:10283000E9F7C4988AE040E050E0BA010E940A1229
:10284000882309F067C00E9403128E3FE1F7B02E83
:10285000780170E6C72ED12C9E2D9B1999830E947A
:1028600003129981983028F4933090F4992359F009
:102870000CC09D3018F4993088F40DC09D3039F1AA
:102880009E3099F529C0F80101C0F70180832DC061
:10289000F70181832AC0F801828727C090E0A0E079
:1028A000B0E00C2C04C0880F991FAA1FBB1F0A940C
:1028B000D2F7F8014385548565857685482B592BD9
:1028C0006A2B7B2B43875487658776870EC082955A
:1028D000807FF801878709C0282F22952F70F80183
:1028E0009785922B97878F70808B0894E11CF11C41
:1028F00048EF5FEFC40ED51E50EDC5165FEFD5064D
:1029000009F0AACF89E040E050E0BA010E940A1223
:10291000882319F0C49A80E090C00E9403128E3F71
:10292000E1F730E0CC24DD247601AA2420E0BB24AA
:10293000B39429833A830E9403123A812981332375
:1029400009F475C03E30B1F490E086FF02C0F80192
:10295000B58A85FF02C0F801B68A84FF02C0F8017B
:10296000B78A8C7090709595879595958795F801A5
:10297000808F5DC03730F9F0383030F4353061F099
:10298000363009F054C00BC03930A9F1393010F19C
:102990003A3009F04CC034C0282F2F7048C090E066
:1029A000A0E0B0E083709070A070B070CC24D82EFE
:1029B000E92EFA2E3CC090E0A0E0B0E0C82AD92A67
:1029C000EA2AFB2A42E0CC0CDD1CEE1CFF1C4A95D7
:1029D000D1F72DC0829586958695837090E0A0E012
:1029E000B0E0C82AD92AEA2AFB2A0894C11CD11CC3
:1029F000E11CF11C1CC0A3E0AA2EA822AA0C17C03F
:102A0000881F8827881FA82A822F90E08A0D911D91
:102A10000296B701A60104C0440F551F661F771F19
:102A20008A95D2F7F801418B528B638B748B3F5F91
:102A3000323109F07ECFC49A81E00F900F90DF9180
:102A4000CF911F910F91FF90EF90DF90CF90BF90AB
:102A5000AF900895FC0103C05D9BFECF8CB98191BE
:102A60008823D1F70895FC010196E491EE2321F02B
:102A70005D9BFECFECB9F7CF0895982F92959F708C
:102A80009A3020F4905D5D9BFECF03C0995A5D9B08
:102A9000FECF9CB9282F30E02F7030708F702A3015
:102AA000310524F4805D5D9BFECF03C0895A5D9B98
:102AB000FECF8CB90895CF93C82F892F0E943D1562
:102AC0008C2F0E943D15CF910895CF92DF92EF9207
:102AD000FF926B017C01C7010E945B15C6010E9439
:102AE0005B15FF90EF90DF90CF9008950F931F93A9
:102AF000CF93DF93FC01C5E0D0E040E020E137E276
:102B00000AE010E0CF01B9010E948D19662329F473
:102B1000442319F42130310531F4862F805D5D9B0B
:102B2000FECF8CB941E070E0629FC001639F900DC1
:102B3000729F900D1124E81BF90BC901B8010E9486
:102B40008D199B012197F1F6DF91CF911F910F9184
:102B500008954F925F926F927F928F929F92AF9261
:102B6000BF92CF92DF92EF92FF920F931F93CF937A
:102B70004B015C010AE010E0C0E0C12C2AECD22E2F
:102B80002AE9E22E2BE3F22E3AE0432E512C612C5F
:102B9000712CC501B401A70196010E94B41922232A
:102BA00041F4CC2331F481E0C816D104E104F104EE
:102BB00031F4822F805D5D9BFECF8CB9C1E0622F26
:102BC00070E080E090E0A70196010E946219DC01AC
:102BD000CB01881A990AAA0ABB0AC701B601A30148
:102BE00092010E94B41969017A010150104089F6DE
:102BF000CF911F910F91FF90EF90DF90CF90BF90FA
:102C0000AF909F908F907F906F905F904F900895BE
:102C1000682F70E080E090E00E94A9150895CF939E
:102C2000DF93CDB7DEB7C658D0400FB6F894DEBFFD
:102C30000FBECDBF8FE18ABB8FE087BB1FEF14BBF8
:102C400086E781BB8CE680934B018DE083BF80914A
:102C50004B018CBF12BE89B7826089BF80E280932E
:102C600094038AE085BD8091940383BD14BC89B729
:102C7000806889BF84E68093C4038A9A10BC82E08E
:102C800089B986E880BD88E18AB981E00E94FB02AB
:102C90001A95F1F780E00E94FB021FBC8C9887E038
:102CA00087B98FEC86B996E097B986B978940E9477
:102CB000920484E60E94530410E00CE1602E712C13
:102CC0006C0E7D1E80E2582E01C010E05F9984C01A
:102CD00080917A00882309F46CC08091C30380FD41
:102CE00031C080917B0090917C0068E871E040E009
:102CF00052E00E94030B9C01AC01662757FD6095D2
:102D0000762F8091CA039091CB03A091CC03B09110
:102D1000CD03840F951FA61FB71F8093CA039093FE
:102D2000CB03A093CC03B093CD038091C303816008
:102D30008093C30342E02030340720F40E94010353
:102D40000E9413038091C30381FDC0CF80917B005B
:102D500090917C0060ED73E040E052E00E94030B34
:102D60009C01AC01662757FD6095762F8091CA03C0
:102D70009091CB03A091CC03B091CD03840F951F0C
:102D8000A61FB71F8093CA039093CB03A093CC03D5
:102D9000B093CD038091C30382608093C30352E05C
:102DA0002030350708F092CF0E9401030E941303E0
:102DB0008DCF80918A03882329F00E94920410927B
:102DC0008A0384CF80919603882309F47FCF0E94E1
:102DD0001805109296037ACF2CB1812F90E0222310
:102DE00019F02A3009F064C2E7E4F0E0EC0FFD1FAF
:102DF0008E0F9F1FFC01108200E010E020E030E009
:102E0000F901E658FF4F5491552359F12F5F3F4F79
:102E1000DE01A95BBF4F61E040E0F901E658FF4FDA
:102E20002F5F3F4F8491882311F0803239F407E4FB
:102E300010E00C0F1D1F040F111D0CC0CD90DD24E0
:102E4000C7FCD09490E0C816D90609F060E04F5F47
:102E50004F3F19F7662329F4F4E020303F0780F252
:102E600050E0C52EDD24EE24FF248AE392E0B70172
:102E7000A6010E945207F6013197E331F10508F0EF
:102E800012C2E65DFF4FEE0FFF1F0590F491E02D9B
:102E90000994F894E0E0FEE70995C8012FEFFC01E2
:102EA00001963081303219F42150C9F701C08F01E9
:102EB000C801BE016F5F7F4F0E9461021981FC0152
:102EC00020812A3351F50196BE016F5F7F4F0E942A
:102ED00061020981FC0120812A33F9F40196BE01C7
:102EE0006F5F7F4F0E946102C9801831B0F40C33CC
:102EF000A0F4FBE3FC1588F0812F602F4C2D20E01F
:102F00000E9487101093CF0300938B03C092CE03CF
:102F10000E94AC028CE592E0C8C182E492E0C5C197
:102F20008091CF0390E00E9476155D9BFECF8AE3EF
:102F30008CB980918B0390E00E9476155D9BFECF4B
:102F40008AE38CB98091CE0390E0F4C0C8012FEFE2
:102F5000FC0101963081303219F42150C9F701C0CB
:102F60008F01C801BE016F5F7F4F0E94610289819E
:102F70009A8121E08536910508F420E020936900CC
:102F80008536910508F0A1CE0E9453049ECE0E9482
:102F90004505882309F499CECE0103960E940614B4
:102FA000882319F48FE592E080C180917F00909191
:102FB00080000E94FB0D6B017C0180917F0090914D
:102FC00080000E941D0E4B015C018EE692E00E9483
:102FD00033158B810E943D155D9BFECF8AE08CB935
:102FE0008FE792E00E943315CE0104960E942A15C5
:102FF0005D9BFECF8AE08CB985E892E00E94331594
:10300000CE0107960E942A155D9BFECF8AE08CB9FF
:103010008FE892E00E9433158D850E943D155D9BDF
:10302000FECF8AE08CB98AE992E00E9433156E8562
:103030007F85888999890E9465155D9BFECF8AE00E
:103040008CB985EA92E00E9433158B8990E00E944A
:1030500076155D9BFECF8FE28CB98A8990E00E9445
:1030600076155D9BFECF8AE08CB98CEA92E00E94D7
:1030700033158C899D89AE89BF8914E1B695A795D2
:10308000979587951A95D1F7BC01CD010E94A91596
:1030900083EB92E00E94331587EB92E00E94331598
:1030A000888D90E00E9476155D9BFECF8AE08CB9FA
:1030B0008EEB92E00E9433158A8D90E00E94761587
:1030C0005D9BFECF8FE28CB9898D90E00E947615D2
:1030D0005D9BFECF8AE08CB98EEC92E00E943315A6
:1030E0008B8D90E00E9476155D9BFECF8AE08CB9B7
:1030F00087ED92E00E943315C701B6010E94A91521
:103100005D9BFECF8AE08CB98EED92E00E94331574
:10311000C501B4010E94A9155D9BFECF8AE08CB960
:1031200082C08091D3059091D40504C0809188031A
:10313000909189030E947615C8CD0E944505882389
:1031400009F4C3CD80917F0090918000B80148E9D7
:1031500053E00E94630D882341F08CE491E0B801B4
:103160000E94EA1985EE92E002C089EE92E00E9488
:10317000331559C00E944505882309F4A6CD8EEF6A
:1031800092E00E94150780917F009091800068E98D
:1031900073E00E94510C90937E0080937D00009715
:1031A00059F58BE093E081C0F30101900020E9F72D
:1031B0003197E619F709C02ECE1AC3010E942A15CD
:1031C0008CAD84FF02C08FE201C080E25D9BFECF28
:1031D0008CB904C05D9BFECF5CB8CA94CC20D1F7FB
:1031E00023966CAD7DAD8EAD9FAD23970E94A91542
:1031F0005D9BFECF1CB902C004E21AE080917D0005
:1032000090917E00B3010E94940C882369F680910E
:103210007D0090917E000E948E0C05C00E944505A5
:10322000882309F452CD0E947D034FCD0E94A6034E
:10323000882329F48BE193E00E94150746CD86E2AE
:1032400093E00E9415070E941303882361F080E336
:1032500093E00E9415078C9A81E28FBD89E08EBDB4
:1032600019BC18BC04C08AE393E00E9415070E94B1
:10327000AC022BCD4091D3055091D40560E070E0B5
:1032800086E493E00E9452078091D3059091D40583
:103290000E94DB04482F50E060E070E08FE493E090
:1032A0000E94520712CD85E593E00E9433150DCDA3
:1032B00047E450E04C0F5D1F840F951FFC012083F5
:1032C0001F5F04CD629FD001739FF001829FE00DCC
:1032D000F11D649FE00DF11D929FF00D839FF00D95
:1032E000749FF00D659FF00D9927729FB00DE11D41
:1032F000F91F639FB00DE11DF91FBD01CF0111241E
:103300000895991B79E004C0991F961708F0961B41
:10331000881F7A95C9F780950895AA1BBB1B51E1B8
:1033200007C0AA1FBB1FA617B70710F0A61BB70B35
:10333000881F991F5A95A9F780959095BC01CD01DA
:10334000089597FB092E07260AD077FD04D0E5DF04
:1033500006D000201AF4709561957F4F0895F6F716
:10336000909581959F4F0895A1E21A2EAA1BBB1B31
:10337000FD010DC0AA1FBB1FEE1FFF1FA217B30741
:10338000E407F50720F0A21BB30BE40BF50B661F57
:10339000771F881F991F1A9469F76095709580951B
:1033A00090959B01AC01BD01CF010895FC01819175
:1033B000861721F08823D9F7992708953197CF01EF
:1033C0000895FB01DC018D91019080190110D9F362
:1033D000990B0895FB01DC0101900D920020E1F7AB
:1033E0000895FB01DC014150504030F08D91019077
:1033F000801919F40020B9F7881B990B0895F894E7
:02340000FFCFFC
:103402006B696E6F2E736E640001646401010305C3
:0A34120007090E10121416181C1EF4
:00000001FF
